:020000040800F2
:10000000C006002005010008EF140008C313000813
:10001000ED1400089D010008C91900080000000047
:10002000000000000000000000000000F3140008C1
:100030000102000800000000F1140008F514000897
:100040001F0100081F0100081F0100081F01000810
:100050001F0100081F0100081F0100081F01000800
:100060001F0100081F0100081F0100081F010008F0
:100070001F0100081F0100081F0100081F010008E0
:100080001F0100081F0100081F0100081F010008D0
:100090001F0100081F0100081F0100081F010008C0
:1000A0001F0100081F0100081F0100081F010008B0
:1000B0001F0100081F010008591500081F01000852
:1000C0001F0100081F0100081F0100081F01000890
:1000D0001F0100081F010008BD1900081F010008CA
:1000E0001F0100081F0100081F010008DFF810D0E1
:1000F00000F042F800480047DD1C0008AFF3008024
:10010000C00600200648804706480047FEE7FEE795
:10011000FEE7FEE7FEE7FEE7FEE7FEE7FEE7FEE7B7
:1001200057150008ED000008D2B201E000F8012BDD
:10013000491EFBD270470022F6E710B513460A4667
:1001400004461946FFF7F0FF204610BD30B50B46B8
:10015000014600202022012409E021FA02F59D42F7
:1001600005D303FA02F5491B04FA02F52844151ECB
:10017000A2F10102F1DC30BD064C074D06E0E0685B
:1001800040F0010394E8070098471034AC42F6D3DE
:10019000FFF7B0FFC81E0008E81E0008FEE70000D9
:1001A00010B5114C1420A0806080104800F0E4FCD1
:1001B00000210E4800F07CFE04210C4800F078FE7F
:1001C0000A48A1880268516300688163084800F00A
:1001D000F7FF01222146064801F09CFBBDE81040D4
:1001E00004A001F0F3BB0000000000202C00002060
:1001F0007400002063617220696E6974204F4B00A7
:10020000704772B6FEE710B590F82110002202295F
:1002100005D00421816380F82020012010BD0168F1
:100220000B6823F00E030B6001680B6823F00103D9
:100230000B6090F84030C46B012101FA03F3636056
:1002400080F8211080F82020104610BD10B590F8DD
:1002500021100024022903D00421816301243DE000
:1002600001680A6822F00E020A6001680A6822F03A
:1002700001020A601A4A0168914201D1012121E07C
:10028000174A1432914201D110211BE0144A28323E
:10029000914201D1891515E0114A3C32914201D1B8
:1002A00089140FE00E4A5032914202D14FF480314E
:1002B00008E00B4A6432914202D14FF4801101E010
:1002C0004FF08071064A083A5160012180F82110F0
:1002D000002180F82010416B01B18847204610BDF5
:1002E000080002402DE9F84FDFF8B8910024A9F189
:1002F000040B23460F2709F1040AABF1040EC9E0F1
:100300000125A5402A40AA427DD1674ED1F804C0FC
:10031000ACEB0608B44532D014DCBCF1030F3AD084
:1003200009DCBCF1000F2AD0BCF1010F1CD0BCF1DC
:10033000020F31D11DE0BCF1110F17D0BCF1120F2B
:100340002AD119E0B8F5881F19D006DCB8F5803F2E
:1003500015D0B8F5801F1FD111E0B8F5001F0ED0E1
:10036000B8F5041F18D10AE0CB6815E0CB681B1D57
:1003700012E0CB6808330FE0CB680C330CE08B68DD
:100380002BB1012B4FF0080303D0456104E0042397
:1003900002E0056100E00023FF2A01D8064601E0E3
:1003A00000F104064FEA840501D9A5F12005D6F82D
:1003B000008007FA05FC28EA0C0803FA05F548EA6C
:1003C0000508C6F800804D68ED0062D5374DAE696E
:1003D00046F00106AE61AD6924F0030605F00105A3
:1003E0000095334D06EB050CDCF80850A607360FD8
:1003F00007FA06F825EA0805DFF8B880404503D17A
:100400004FF0000817E044E0DFF8AC80404502D12F
:100410004FF001080FE0DFF8A480404502D14FF013
:10042000020808E0DFF89880404502D14FF0030849
:1004300001E04FF0040808FA06F848EA0508CCF88D
:1004400008804D68D9F80060ED024D4601D516438D
:1004500000E096432E604D68DAF80060AD02554624
:1004600001D5164300E096432E604D68DBF800602E
:10047000AD035D4601D5164300E096432E604D68FE
:10048000DEF80060ED03754601D5164300E09643A3
:100490002E60641C0D682A46E5407FF431AFBDE84C
:1004A000F88F000008040140000011100010024005
:1004B0000000014000080140000C01400010014014
:1004C000001401400AB1016170470904FBE7000014
:1004D00001488068704700001000002002488168D1
:1004E000027811448160704710000020074810B561
:1004F000016841F010010160032000F075F80F2041
:1005000000F006F800F024F8002010BD00200240A2
:1005100070B50D4D04464FF47A712878B1FBF0F0B8
:100520000A490968B1FBF0F000F0DCFA48B9102C78
:1005300007D200222146501E00F036F800206C60E1
:1005400070BD012070BD0000100000201C000020C4
:100550000C4808B5816941F001018161816901F0B0
:1005600001010091C16941F08051C161C06900F091
:10057000805000900448416821F0E06141F08061C2
:10058000416008BD0010024000000140002809DB66
:1005900000F01F02012191404009800000F1E0209D
:1005A000C0F8001170470000F0B40E4B1B680C46F9
:1005B000C3F30223C3F10705042D00D90425191D37
:1005C000072901D2002300E0DB1E012606FA05F10F
:1005D000491E214099409E40761E16403143F0BC92
:1005E00001F004BA0CED00E0064900F007020868CB
:1005F0004FF6FF03184040EA0220034A1043086008
:10060000704700000CED00E00000FA052DE9F0470E
:100610000F46050061D0434E306800F00700B84235
:1006200009D2306820F0070038433060306800F0AD
:100630000700B84251D128683B4C810712D54007CA
:1006400003D5606840F4E06060602878000703D557
:10065000606840F4605060606068A96820F0F00055
:10066000084360602878C00728D06868012810D047
:100670002168022810D0890700292EDA616821F04C
:10068000030101436160FFF723FF804641F288398F
:100690000DE021688903EFE78901EDE7FFF718FF17
:1006A000A0EB0801494502D90320BDE8F087606846
:1006B000696800F00C00B0EB810FEFD1306800F0FA
:1006C0000700B8420BD9306820F00700384330608B
:1006D000306800F00700B84201D00120E5E7287833
:1006E000400705D56068E96820F4E0600843606071
:1006F0002878000706D56068296920F4605040EA30
:10070000C100606000F038F86168084AC1F3031165
:10071000515CC8400649086006480068FFF7F8FECB
:100720000020C2E70020024000100240AE1E000878
:100730001C00002014000020044805490068496896
:10074000044AC1F30221515CC84070471C000020DC
:1007500000100240BE1E00080448054900684968B0
:10076000044AC1F3C221515CC84070471C000020FC
:1007700000100240BE1E00080E4A51680E4801F0EB
:100780000C03042B11D0082B0FD10C48C1F3834369
:10079000C903C05C0AD55168084AC1F34041921EA2
:1007A000515C054A5043B0FBF1F07047044948439F
:1007B000704700000010024000127A009E1E0008E0
:1007C00000093D002DE9F84F040070D02078C04D9D
:1007D000C00749D06868C0F38100012807D0686865
:1007E000C0F38100022809D16868C00306D52868D3
:1007F000800339D560680028E7D035E06068B0F53F
:10080000803F0BD010B1B0F5A02F11D0286820F494
:1008100080302860286820F4802002E0286840F4B6
:1008200080302860606890B1FFF752FE06460AE00B
:10083000286840F480202860F0E700BFFFF748FEFA
:10084000801B642873D828688003F7D50CE0FFF775
:100850003FFE064605E000BFFFF73AFE801B642816
:10086000F0D828688003F7D420789A4E80074FF09C
:1008700001094FF0000839D5686810F00C0F07D057
:100880006868C0F38100022809D16868C00306D4F3
:100890002868800714D52069012808D110E0206954
:1008A000B0B1C6F80090FFF713FE074605E00AE175
:1008B000FFF70EFEC01B0228C4D828688007F7D5B2
:1008C0002868616920F0F80040EAC10028600DE066
:1008D000C6F80080FFF7FCFD074604E0FFF7F8FDCF
:1008E000C01B022823D828688007F7D42078000787
:1008F0002CD57948A169D9B1C0F80090FFF7E8FD7F
:10090000074604E0FFF7E4FDC01B02280FD8686A21
:100910008007F7D571484FF4FA510068B0FBF1F049
:10092000009000BF0098411E0091FAD20EE080E0D6
:10093000C0F80080FFF7CCFD074604E0FFF7C8FDD4
:10094000C01B022875D8686A8007F7D42078400752
:1009500060D5E8690027C00008D4E86940F08050FD
:10096000E861E869012700F0805000905C48016868
:10097000C90513D40168834641F480710160FFF713
:10098000A7FD824606E000BFFFF7A2FDA0EB0A002C
:1009900064284ED8DBF80000C005F5D5E0680128D2
:1009A0000AD008B1052813D0286A20F00100286277
:1009B000286A20F0040002E0286A40F00100286262
:1009C000E06841F2883B98B1FFF782FD82460BE078
:1009D000286A40F004002862EEE700BFFFF778FDC8
:1009E000A0EB0A0159455AD8286A8007F6D50CE0D1
:1009F000FFF76EFD824605E0FFF76AFDA0EB0A01F6
:100A000059454CD8286A8007F6D41FB1E86920F010
:100A10008050E861E06988B36968C1F38101022907
:100A200044D00228C6F8608004D0FFF751FD044688
:100A300038E034E0FFF74CFD074604E0FFF748FDDF
:100A4000C01B02282BD828688001F7D4206AB0F593
:100A5000803F05D16868A16820F4003008436860D1
:100A6000D4E908010843696821F4741108436860F7
:100A7000C6F86090FFF72CFD044606E025E000BFB5
:100A8000FFF726FD001B022809D828688001F7D54A
:100A90001BE000BFFFF71CFD001B022802D903204A
:100AA000BDE8F88F28688001F4D40EE00128F7D063
:100AB0006868226A00F48031914204D1616A00F4CE
:100AC0007010884201D00120EAE70020E8E700002A
:100AD0000010024000004242800442421C000020FC
:100AE0000070004010B5401EB0F1807F01D301209E
:100AF00010BD4FF0E02460610F21601700F076FF19
:100B00000020A06107202061002010BD70477047C1
:100B100070B590F83C20012A26D0012480F83C4092
:100B2000022280F83D2003685A689D6822F0700612
:100B30000A6832435A600D4B02689A4208D0B2F1FB
:100B4000804F05D00A4B9A4202D00A4B9A4204D1F8
:100B5000496825F080031943916080F83D400021E9
:100B600080F83C10084670BD022070BD002C01408A
:100B7000000400400008004090F83D10012901D019
:100B800001207047022180F83D1000680B4988421F
:100B900008D0B0F1804F05D00949884202D00949F8
:100BA000884204D1816801F00701062903D0016859
:100BB00041F001010160002070470000002C01405D
:100BC000000400400008004070472DE9F041044651
:100BD0000068C66805694FF00007A90713D5B1077B
:100BE00011D5F91E016101202077206880698007F6
:100BF000204602D0FFF7E8FF04E000F0A5F8204609
:100C000000F054F92777680716D5700714D52168C6
:100C10006FF004000861022020772068806910F4DA
:100C2000407F204602D0FFF7CFFF04E000F08CF8B1
:100C3000204600F03BF92777280715D5300713D554
:100C400021686FF008000861042020772068C069DF
:100C50008007204602D0FFF7B7FF04E000F074F8E9
:100C6000204600F023F92777E80616D5F00614D5BC
:100C700021686FF010000861082020772068C069A3
:100C800010F4407F204602D0FFF79EFF04E000F002
:100C90005BF8204600F00AF92777E80708D0F0074C
:100CA00006D021686FF001000861204600F04EF97F
:100CB000280608D5300606D521686FF08000086147
:100CC0002046FFF723FF680608D5700606D5216881
:100CD0006FF040000861204600F039F9A8060AD5F7
:100CE000B00608D521686FF0200008612046BDE8F5
:100CF000F041FFF70CBFBDE8F081000000B585B002
:100D00000021009101910291039100680B498842F2
:100D100011D10B48816941F0080181618069694600
:100D200000F008000490C020009002200190039081
:100D30000448FFF7D7FA05B000BD000000080040E6
:100D400000100240000C0140704770B5044690F856
:100D50003C0000260D4601280FD0012084F83C00FD
:100D60006AB1042A1DD0082A2FD00C2A3FD00126B0
:100D7000002084F83C00304670BD022070BD206821
:100D800000F03AFC2068816941F008018161206827
:100D9000816921F004018161206881692A69114318
:100DA00011E0206800F050FC2068816941F4006186
:100DB00081612068816921F4806181612068816995
:100DC0002A6941EA02218161D2E7206800F068FCCB
:100DD0002068C16941F00801C1612068C16921F042
:100DE0000401C1612068C1692A69114311E02068CA
:100DF00000F082FC2068C16941F40061C161206893
:100E0000C16921F48061C1612068C1692A6941EA30
:100E10000221C161ACE710B5040003D094F83D0095
:100E200010B107E0012010BD002084F83C002046EE
:100E300000F01EF8022084F83D00211D206800F01B
:100E400091FB012084F8460084F83E0084F83F00BE
:100E500084F8400084F8410084F8420084F843009C
:100E600084F8440084F8450084F83D00002010BD5B
:100E700008B500680B49884212D10B48C16941F09E
:100E80000401C161C069002200F004000090114615
:100E90001E20FFF789FBBDE808401E20FFF776BB48
:100EA00008BD00000008004000100240704700002C
:100EB00010B50446022249B104290ED0082913D0E6
:100EC00094F84100012816D0012010BD94F83E008E
:100ED0000128F9D184F83E200FE094F83F00012862
:100EE000F2D184F83F2008E094F840000128EBD1CB
:100EF00084F8402001E084F841200122206800F0BD
:100F00006DFB0F492068884203D1426C42F40042D5
:100F100042642068884208D0B0F1804F05D009496A
:100F2000884202D00849884204D1816801F0070153
:100F3000062903D0016841F001010160002010BDC5
:100F4000002C01400004004000080040704770473A
:100F500070477047F8B5016804460868CA684B696D
:100F600010F00F0F4FF0000559D003F0010602F406
:100F70009077374365D0C10705D0D10503D5616CA3
:100F800041F001016164410705D5D90703D0616CC7
:100F900041F002016164810705D5D90703D0616C76
:100FA00041F004016164010707D502F020013143DB
:100FB00003D0616C41F008016164616C00293AD092
:100FC000800604D5900602D5204600F0E6FB206896
:100FD0004069616CC0F38010090700D460B32046FB
:100FE00000F0B4FB20684069400621D52068143029
:100FF00050E8001F21F0400140E80012002AF5D11E
:10100000E06BA8B16D494163E06BFFF71FF9002861
:1010100011D0E06B416B01B0BDE8F040084783069A
:101020000FD593060DD52046BDE8F84000F0B5BBBE
:101030002046FFF78EFFF8BD2046FFF78AFF656464
:10104000F8BD266B2023012E7CD1C6067AD5D606A4
:1010500078D508684868009048694FF00206400655
:1010600040D5E16B086840680004000CE8D0A28D10
:101070008242E5D9E085886920282DD020680C308F
:1010800050E8001F21F4807140E80012002AF5D1D9
:101090002068143050E8001F21F0010140E80012E0
:1010A000002AF5D12068143050E8001F21F04001DB
:1010B00040E80012002AF5D184F842302563206808
:1010C0000C3050E8001F21F0100140E80012002A07
:1010D000F5D1E06BFFF797F86663A08DE18D401ABC
:1010E00081B22AE0A08DE18D401A81B2E08D002806
:1010F000A6D00029A4D022680C3252E8000F20F4B8
:10110000907042E80007002FF5D12068143050E8B5
:10111000002F22F0010240E80027002FF5D184F8CB
:101120004230256320680C3050E8002F22F0100276
:1011300040E80023002BF5D166632046FFF708FF47
:10114000F8BDFFE705062BD5150629D594F8410013
:101150002128F5D1A068B0F5805F01D12069B0B138
:10116000206A411C2162216800784860E08C401EA2
:101170000004000CE084E3D12068C16821F0800104
:10118000C1602068C16841F04001C160D8E7206AB1
:101190000088C0F308004860206A801C2062E5E7F0
:1011A0004006CDD55006CBD5CA68204622F0400275
:1011B000CA6084F8413000F003F9C1E73D17000828
:1011C00070B5040004D094F84100002510B106E089
:1011D000012070BD84F84050204600F023F8242000
:1011E00084F841002068C16821F40051C1602046A4
:1011F00000F034FB2068016921F49041016120680E
:10120000416921F02A0141612068C16841F400511F
:10121000C1606564202084F8410084F84200656361
:10122000002070BD30B585B0002400940194029474
:1012300003940068184988422BD11848C16941F4C9
:101240000031C161C16901F400310491816941F04B
:10125000040181618069124D00F0040004900420B3
:101260000090022001900320039069462846FFF772
:1012700039F80820CDE90004694628460294FFF7B2
:1012800031F8002211462620FFF78EF92620FFF7BD
:101290007DF905B030BD0000004400400010024060
:1012A0000008014010B51949884219D100F00EFD1F
:1012B00017490978313909290AD2DFE801F0050711
:1012C000181A1C1E20222400332100E03421017052
:1012D0001049012008701048018810A000F076FB2A
:1012E000BDE8104001220A49084800F013BB35212F
:1012F000EDE73621EBE73121E9E73221E7E7372156
:10130000E5E73821E3E73921E1E700007400002038
:10131000000000200C0000200400002025640000D4
:101320002DE9F843044690F84100984616460D46CC
:10133000202802D00220BDE8F88385B17EB10020CC
:101340006064212084F84100FFF7C2F8A68481463A
:10135000E684A0682027B0F5805F02D003E001207A
:10136000E9E7206910B12E4600250EE000260CE0CA
:101370008021204600F0E9FAA8B9C6B116F8010BA1
:1013800021684860E08C401EE084E08C4B464FF0C2
:101390000002CDF800800028EAD14FF0400120463D
:1013A00000F0D3FA40B184F841700320C3E735F868
:1013B000020BC0F30800E3E784F841700020BAE7AD
:1013C0007047FEE770B586B0002418480094019479
:1013D00002940394816941F020018161816901F0E7
:1013E00020010491816941F004018161816901F06A
:1013F00004010491816941F00801816180690C4E0A
:1014000000F008004FF47065049000222946304631
:10141000FFF758F801200095CDE901040220039060
:1014200069463046FEF75EFF06B070BD0010024010
:101430000008014010B58AB0002407941C216846BA
:101440000894FEF778FE1A481849016040F2CF214F
:10145000C0E901146321C0E903148461FFF7DBFCD8
:1014600008B1FEF7CEFE079407A911480894FFF7CC
:101470004FFB08B1FEF7C5FE6020CDE900040294E1
:10148000002269460A480494FFF75FFC08B1FEF7A2
:10149000B8FE042269460648FFF757FC08B1FEF77C
:1014A000B0FE0348FFF72AFC0AB010BD0008004058
:1014B0002C0000200C4810B50A4901604FF4E131BE
:1014C0004160002181600C22C160C0E90412816189
:1014D000C161FFF775FE002803D0BDE81040FEF79C
:1014E00090BE10BD0044004074000020FEE7FEE7FF
:1014F00070477047FEF7F2BF30B58FB028216846BD
:10150000FEF719FE14210AA8FEF715FE01210804B2
:10151000CDE900100024029402250491CDE9075082
:101520004FF4E01009906846FFF74CF908B172B625
:10153000FEE70F20CDE90A054FF48060CDE90C40AD
:1015400002210AA80E94FFF761F8002801D072B6B4
:10155000FEE70FB030BD70470148FFF736BB000013
:101560002C000020F0B50268194B1A4C1A4D4FF0B0
:101570008047984205D0B84203D0A04201D0A8428B
:1015800003D122F070064A683243984205D0B8422F
:1015900003D0A04201D0A84203D122F44074CA680B
:1015A00022434C6922F08002224302608A68C262B0
:1015B0000A688262984201D109690163012141618F
:1015C0000169C90703D0016921F001010161F0BD82
:1015D000002C0140000400400008004010B501F05C
:1015E0001F030121046A99408C430462016A9A40F6
:1015F0001143016210BD000030B5036A026A22F097
:10160000010202624268846924F073050C682C436D
:1016100023F002058B682B430A4DA8420BD123F01F
:101620000805CB6822F440722B434D6923F0040374
:1016300015438A692A4342608461496841630362B1
:1016400030BD0000002C014030B5026A036A23F06F
:1016500010030362436884690D6824F4E64444EA95
:1016600005248D6822F0200242EA05120B4DA842A3
:101670000ED1CD6822F0800242EA05124D6923F4B2
:10168000406343EA85038D6922F0400243EA850303
:101690004360846149688163026230BD002C01406F
:1016A00030B5036A026A22F4807202624268C46939
:1016B00023F4007324F073050C682C438D6843EA0F
:1016C00005230C4DA8420ED1CD6823F4006343EAF4
:1016D00005234D6922F4405242EA05128D6923F434
:1016E000806342EA05124260C4614968C1630362D3
:1016F00030BD0000002C014030B5046A026A22F4BB
:10170000805202624268C3690D6823F4E64343EAEB
:1017100005238D6824F4005444EA0534064DA8429C
:1017200004D14D6922F4804242EA85124260C361CD
:1017300049680164046230BD002C014010B5406A64
:101740000021C185C184FFF704FC10BD01680C3184
:1017500051E8002F22F4907241E80023002BF5D1CC
:101760000168143151E8002F22F0010241E8002302
:10177000002BF5D1016B012909D101680C3151E829
:10178000002F22F0100241E80023002BF5D1202188
:1017900080F8421000210163704708B590F84210AC
:1017A000222901D0022008BD82684FF480539A425A
:1017B00001D1016921B1816A9A421BD04AB10AE084
:1017C0000268816A5268C2F308020A80816A891C31
:1017D00008E0026972B10268526802F07F020A7082
:1017E000816A491C8162C18D491E0904090CC185A9
:1017F00003D01BE002685268F1E70168CA6822F072
:101800002002CA600168CA6822F48072CA60016856
:101810004A6922F001024A61202180F84210002129
:101820004163026B012A03D0FFF73CFD002008BD95
:10183000016301680C3151E8002F22F0100241E8E9
:101840000023002BF5D101680A68D20602D50A6888
:1018500049680091818DFFF77BFBE7E770B504468F
:1018600000680169E26821F4405111430161216976
:10187000A0680843616908432168CA6841F20C63A3
:101880009A430243CA6020684169A26921F4407109
:10189000114341611E492068884202D1FEF75CFF76
:1018A00001E0FEF749FF00EBC00101EB00126068A8
:1018B00064218000B2FBF0F3B3FBF1F36FF0180684
:1018C0007343B2FBF0F5B2FBF0F605EB8305322370
:1018D00003EB0515B5FBF1F5B6FBF1F605F0F005E8
:1018E00005EB0615B2FBF0F6B2FBF0F0B0FBF1F041
:1018F0006FF01802504306EB800003EB0010B0FBC2
:10190000F1F0216800F00F002844886070BD0000ED
:101910000038014081628285C28500214164222114
:1019200080F84210016921B10168CA6842F48072EE
:10193000CA6001684A6942F001024A610068C168F0
:1019400041F02001C160002070472DE9F84398461E
:1019500017460D460446089E24E0701C22D0FEF770
:10196000B7FDA0EB0800B0421AD8CEB12068C1681C
:10197000490717D5802D15D0402D13D00168C943D4
:1019800009070FD401680025406800902046FFF742
:10199000DDFE0820606484F840500120BDE8F88333
:1019A0000320FBE72068006835EA000004D000202F
:1019B000B842D2D00020F1E70120F9E70148FFF753
:1019C000C9BA000074000020FEE700000FB4054B08
:1019D00010B503A9044A029800F028F810BC5DF87D
:1019E00014FB0000B11C0008200000200907090EAC
:1019F000002804DB00F1E02080F80014704700F0BC
:101A00000F0000F1E02080F8141D704702E008C8C4
:101A1000121F08C1002AFAD170477047002001E068
:101A200001C1121F002AFBD1704700002DE9FF4FB2
:101A300089B09B460446002506E025280BD05A466F
:101A40000B999047641C6D1C20780028F5D10DB0CF
:101A50002846BDE8F08F0027B8460122474900E03C
:101A6000074314F8013F203B02FA03F00842F7D184
:101A700020782E2819D114F8010F47F004072A28DE
:101A80000ED06FF02F022078A0F1300109290CD878
:101A900008EB880102EB410100EB0108641CF2E74E
:101AA0000A98641C50F8048B0A9020780028CED045
:101AB000642808D0692806D075281ED05A460B998C
:101AC00090476D1C58E00A994FF00A0901C90A9124
:101AD000002802DA40422D2102E0390504D52B21ED
:101AE0008DF82010012103E0F90704D02021F7E749
:101AF0008A4608AE0DE00021FAE70A994FF00A097C
:101B000001C90A91F7E74946FEF720FB303106F894
:101B1000011D0028F7D1ADEB060000F12009780780
:101B200001D44FF00108C84502DDA8EB090000E030
:101B300000208046002706E008A85A46C05D0B99A1
:101B400090476D1C7F1C5745F6DB04E030205A4659
:101B50000B9990476D1CB8F10001A8F10108F5DC64
:101B600005E016F8010B5A460B9990476D1CB9F128
:101B70000001A9F10109F4DC641C65E709280100F2
:101B800010B50E4C012211022046FEF79BFC0022EC
:101B900061152046FEF796FC012291022046FEF7D1
:101BA00091FC0022E1142046FEF78CFC0448818859
:101BB0000448026851630068816310BD0008014059
:101BC000000000202C00002010B50C4CA06800285C
:101BD00013D1242000F0A4F83221A060017008493C
:101BE00081600849C16008490161084941610849AB
:101BF00081610849C1610849016210BD00000020EF
:101C0000811B00088D1D0008651E0008811E00084C
:101C1000511C0008F91D0008D91D000810B50B4C17
:101C2000012211022046FEF74DFC002261152046DC
:101C3000FEF748FC002221152046FEF743FC204613
:101C40000122BDE81040D102FEF73CBC0008014073
:101C5000A0F13101144810B5C088092920D2DFE86D
:101C600001F005080B0E1114171A1D00FEF798FA63
:101C700016E000F0D1F813E0FFF782FF10E000F06B
:101C800085F80DE000F0EEF80AE000F0F9F807E062
:101C9000FFF7C4FF04E000F0AFF801E000F09CF8AB
:101CA00002490020087010BD000000200C00002038
:101CB00008B505238DF80000012269460248FFF7A8
:101CC0002FFB9DF8000008BD7400002010B5FFF741
:101CD0007BFF0148806810BD00000020FEF706FC75
:101CE000FFF70AFCFFF76EFBFFF7A4FBFFF7E2FB31
:101CF000FEF756FAFFF7EAFF044605A0FFF766FE77
:101D0000064D28780128FCD1A16920788847F8E79A
:101D100073746D3332207465737400000C000020FE
:101D2000F0B50B30154D20F007010024144A0FE0E8
:101D300003688B420BD38B4205D95E1A4318476860
:101D4000C3E9006700E04368136002C004E0021DBD
:101D500010680028ECD12046002802D1286808B17C
:101D60000020F0BD064A07481060074A121A22F008
:101D70000702C0E9002401202860D7E728000020DE
:101D800024000020C4000020C002002010B50F4C29
:101D900000224FF480712046FEF794FB012251028D
:101DA0002046FEF78FFB002221152046FEF78AFB16
:101DB0000122D1022046FEF785FB054881880548AF
:101DC000026851630068816310BD00000008014093
:101DD000000000202C00002005498A88101A80B2DB
:101DE000888004490A685063096888637047000066
:101DF000000000202C00002005498A88104480B291
:101E0000888004490A685063096888637047000045
:101E1000000000202C00002010B50F4C00224FF4D1
:101E200080712046FEF74EFB002261152046FEF72A
:101E300049FB002221152046FEF744FB0022E11455
:101E40002046FEF73FFB054881880548026851633C
:101E50000068816310BD0000000801400000002000
:101E60002C000020054904480B6882885A6340888A
:101E70000968104488637047000000202C0000208F
:101E8000054904480B6882889A63408809681044B1
:101E900048637047000000202C000020010202036C
:101EA0000405060708090A0B0C0D0E0F10100000A0
:101EB00000000000000001020304060708090000FA
:101EC0000000010203040000E81E000800000020DA
:101ED0002C0000000C1A0008141F00082C00002021
:101EE000940600001C1A00083200000000000A00DE
:101EF00000000000000000000100000010000000D1
:101F00000000000000127A00000000000000000045
:041F100000000000CD
:04000005080000ED02
:00000001FF
